{
  "_format": "hh-sol-artifact-1",
  "contractName": "BlockStore",
  "sourceName": "contracts/BlockStore.sol",
  "abi": [
    {
      "anonymous": false,
      "inputs": [
        {
          "indexed": true,
          "internalType": "uint256",
          "name": "fileId",
          "type": "uint256"
        },
        {
          "indexed": true,
          "internalType": "address",
          "name": "owner",
          "type": "address"
        },
        {
          "indexed": false,
          "internalType": "string",
          "name": "manifestCID",
          "type": "string"
        },
        {
          "indexed": false,
          "internalType": "uint256",
          "name": "timestamp",
          "type": "uint256"
        }
      ],
      "name": "FileRegistered",
      "type": "event"
    },
    {
      "inputs": [
        {
          "internalType": "uint256",
          "name": "",
          "type": "uint256"
        }
      ],
      "name": "files",
      "outputs": [
        {
          "internalType": "address",
          "name": "owner",
          "type": "address"
        },
        {
          "internalType": "string",
          "name": "manifestCID",
          "type": "string"
        },
        {
          "internalType": "uint256",
          "name": "timestamp",
          "type": "uint256"
        }
      ],
      "stateMutability": "view",
      "type": "function"
    },
    {
      "inputs": [
        {
          "internalType": "uint256",
          "name": "_fileId",
          "type": "uint256"
        }
      ],
      "name": "getFile",
      "outputs": [
        {
          "internalType": "address",
          "name": "",
          "type": "address"
        },
        {
          "internalType": "string",
          "name": "",
          "type": "string"
        },
        {
          "internalType": "uint256",
          "name": "",
          "type": "uint256"
        }
      ],
      "stateMutability": "view",
      "type": "function"
    },
    {
      "inputs": [
        {
          "internalType": "string",
          "name": "_manifestCID",
          "type": "string"
        }
      ],
      "name": "registerFile",
      "outputs": [],
      "stateMutability": "nonpayable",
      "type": "function"
    },
    {
      "inputs": [],
      "name": "totalFiles",
      "outputs": [
        {
          "internalType": "uint256",
          "name": "",
          "type": "uint256"
        }
      ],
      "stateMutability": "view",
      "type": "function"
    }
  ],
  "bytecode": "0x608060405234801561001057600080fd5b50610b50806100206000396000f3fe608060405234801561001057600080fd5b506004361061004c5760003560e01c80632bfda3131461005157806366d561d21461008357806392cf05571461009f578063f4c714b4146100bd575b600080fd5b61006b60048036038101906100669190610496565b6100ef565b60405161007a939291906105a3565b60405180910390f35b61009d60048036038101906100989190610716565b610234565b005b6100a761035e565b6040516100b4919061075f565b60405180910390f35b6100d760048036038101906100d29190610496565b61036a565b6040516100e6939291906105a3565b60405180910390f35b600060606000806000858154811061010a5761010961077a565b5b90600052602060002090600302016040518060600160405290816000820160009054906101000a900473ffffffffffffffffffffffffffffffffffffffff1673ffffffffffffffffffffffffffffffffffffffff1673ffffffffffffffffffffffffffffffffffffffff168152602001600182018054610189906107d8565b80601f01602080910402602001604051908101604052809291908181526020018280546101b5906107d8565b80156102025780601f106101d757610100808354040283529160200191610202565b820191906000526020600020905b8154815290600101906020018083116101e557829003601f168201915b505050505081526020016002820154815250509050806000015181602001518260400151935093509350509193909250565b600060405180606001604052803373ffffffffffffffffffffffffffffffffffffffff16815260200183815260200142815250908060018154018082558091505060019003906000526020600020906003020160009091909190915060008201518160000160006101000a81548173ffffffffffffffffffffffffffffffffffffffff021916908373ffffffffffffffffffffffffffffffffffffffff16021790555060208201518160010190816102ec91906109b5565b506040820151816002015550503373ffffffffffffffffffffffffffffffffffffffff1660016000805490506103229190610ab6565b7f9fdcce6afe0035c11728171ceac46eea437e7bcdbff7b89f09917672c11be7e58342604051610353929190610aea565b60405180910390a350565b60008080549050905090565b6000818154811061037a57600080fd5b90600052602060002090600302016000915090508060000160009054906101000a900473ffffffffffffffffffffffffffffffffffffffff16908060010180546103c3906107d8565b80601f01602080910402602001604051908101604052809291908181526020018280546103ef906107d8565b801561043c5780601f106104115761010080835404028352916020019161043c565b820191906000526020600020905b81548152906001019060200180831161041f57829003601f168201915b5050505050908060020154905083565b6000604051905090565b600080fd5b600080fd5b6000819050919050565b61047381610460565b811461047e57600080fd5b50565b6000813590506104908161046a565b92915050565b6000602082840312156104ac576104ab610456565b5b60006104ba84828501610481565b91505092915050565b600073ffffffffffffffffffffffffffffffffffffffff82169050919050565b60006104ee826104c3565b9050919050565b6104fe816104e3565b82525050565b600081519050919050565b600082825260208201905092915050565b60005b8381101561053e578082015181840152602081019050610523565b60008484015250505050565b6000601f19601f8301169050919050565b600061056682610504565b610570818561050f565b9350610580818560208601610520565b6105898161054a565b840191505092915050565b61059d81610460565b82525050565b60006060820190506105b860008301866104f5565b81810360208301526105ca818561055b565b90506105d96040830184610594565b949350505050565b600080fd5b600080fd5b7f4e487b7100000000000000000000000000000000000000000000000000000000600052604160045260246000fd5b6106238261054a565b810181811067ffffffffffffffff82111715610642576106416105eb565b5b80604052505050565b600061065561044c565b9050610661828261061a565b919050565b600067ffffffffffffffff821115610681576106806105eb565b5b61068a8261054a565b9050602081019050919050565b82818337600083830152505050565b60006106b96106b484610666565b61064b565b9050828152602081018484840111156106d5576106d46105e6565b5b6106e0848285610697565b509392505050565b600082601f8301126106fd576106fc6105e1565b5b813561070d8482602086016106a6565b91505092915050565b60006020828403121561072c5761072b610456565b5b600082013567ffffffffffffffff81111561074a5761074961045b565b5b610756848285016106e8565b91505092915050565b60006020820190506107746000830184610594565b92915050565b7f4e487b7100000000000000000000000000000000000000000000000000000000600052603260045260246000fd5b7f4e487b7100000000000000000000000000000000000000000000000000000000600052602260045260246000fd5b600060028204905060018216806107f057607f821691505b602082108103610803576108026107a9565b5b50919050565b60008190508160005260206000209050919050565b60006020601f8301049050919050565b600082821b905092915050565b60006008830261086b7fffffffffffffffffffffffffffffffffffffffffffffffffffffffffffffffff8261082e565b610875868361082e565b95508019841693508086168417925050509392505050565b6000819050919050565b60006108b26108ad6108a884610460565b61088d565b610460565b9050919050565b6000819050919050565b6108cc83610897565b6108e06108d8826108b9565b84845461083b565b825550505050565b600090565b6108f56108e8565b6109008184846108c3565b505050565b5b81811015610924576109196000826108ed565b600181019050610906565b5050565b601f8211156109695761093a81610809565b6109438461081e565b81016020851015610952578190505b61096661095e8561081e565b830182610905565b50505b505050565b600082821c905092915050565b600061098c6000198460080261096e565b1980831691505092915050565b60006109a5838361097b565b9150826002028217905092915050565b6109be82610504565b67ffffffffffffffff8111156109d7576109d66105eb565b5b6109e182546107d8565b6109ec828285610928565b600060209050601f831160018114610a1f5760008415610a0d578287015190505b610a178582610999565b865550610a7f565b601f198416610a2d86610809565b60005b82811015610a5557848901518255600182019150602085019450602081019050610a30565b86831015610a725784890151610a6e601f89168261097b565b8355505b6001600288020188555050505b505050505050565b7f4e487b7100000000000000000000000000000000000000000000000000000000600052601160045260246000fd5b6000610ac182610460565b9150610acc83610460565b9250828203905081811115610ae457610ae3610a87565b5b92915050565b60006040820190508181036000830152610b04818561055b565b9050610b136020830184610594565b939250505056fea2646970667358221220623a2ebec4a6df60ab1b88f87d183044c9c8b01702b14f8d71a2f1e0a45939c364736f6c63430008130033",
  "linkReferences": {},
  "deployedLinkReferences": {}
}