{"contracts/BlockStore.sol":{"BlockStore":{"abi":[{"anonymous":false,"inputs":[{"indexed":true,"internalType":"uint256","name":"fileId","type":"uint256"},{"indexed":true,"internalType":"address","name":"owner","type":"address"},{"indexed":false,"internalType":"string","name":"manifestCID","type":"string"},{"indexed":false,"internalType":"uint256","name":"timestamp","type":"uint256"}],"name":"FileRegistered","type":"event"},{"inputs":[{"internalType":"uint256","name":"","type":"uint256"}],"name":"files","outputs":[{"internalType":"address","name":"owner","type":"address"},{"internalType":"string","name":"manifestCID","type":"string"},{"internalType":"uint256","name":"timestamp","type":"uint256"}],"stateMutability":"view","type":"function"},{"inputs":[{"internalType":"uint256","name":"_fileId","type":"uint256"}],"name":"getFile","outputs":[{"internalType":"address","name":"","type":"address"},{"internalType":"string","name":"","type":"string"},{"internalType":"uint256","name":"","type":"uint256"}],"stateMutability":"view","type":"function"},{"inputs":[{"internalType":"string","name":"_manifestCID","type":"string"}],"name":"registerFile","outputs":[],"stateMutability":"nonpayable","type":"function"},{"inputs":[],"name":"totalFiles","outputs":[{"internalType":"uint256","name":"","type":"uint256"}],"stateMutability":"view","type":"function"}],"evm":{"bytecode":{"linkReferences":{},"object":"608060405234801561001057600080fd5b50610b50806100206000396000f3fe608060405234801561001057600080fd5b506004361061004c5760003560e01c80632bfda3131461005157806366d561d21461008357806392cf05571461009f578063f4c714b4146100bd575b600080fd5b61006b60048036038101906100669190610496565b6100ef565b60405161007a939291906105a3565b60405180910390f35b61009d60048036038101906100989190610716565b610234565b005b6100a761035e565b6040516100b4919061075f565b60405180910390f35b6100d760048036038101906100d29190610496565b61036a565b6040516100e6939291906105a3565b60405180910390f35b600060606000806000858154811061010a5761010961077a565b5b90600052602060002090600302016040518060600160405290816000820160009054906101000a900473ffffffffffffffffffffffffffffffffffffffff1673ffffffffffffffffffffffffffffffffffffffff1673ffffffffffffffffffffffffffffffffffffffff168152602001600182018054610189906107d8565b80601f01602080910402602001604051908101604052809291908181526020018280546101b5906107d8565b80156102025780601f106101d757610100808354040283529160200191610202565b820191906000526020600020905b8154815290600101906020018083116101e557829003601f168201915b505050505081526020016002820154815250509050806000015181602001518260400151935093509350509193909250565b600060405180606001604052803373ffffffffffffffffffffffffffffffffffffffff16815260200183815260200142815250908060018154018082558091505060019003906000526020600020906003020160009091909190915060008201518160000160006101000a81548173ffffffffffffffffffffffffffffffffffffffff021916908373ffffffffffffffffffffffffffffffffffffffff16021790555060208201518160010190816102ec91906109b5565b506040820151816002015550503373ffffffffffffffffffffffffffffffffffffffff1660016000805490506103229190610ab6565b7f9fdcce6afe0035c11728171ceac46eea437e7bcdbff7b89f09917672c11be7e58342604051610353929190610aea565b60405180910390a350565b60008080549050905090565b6000818154811061037a57600080fd5b90600052602060002090600302016000915090508060000160009054906101000a900473ffffffffffffffffffffffffffffffffffffffff16908060010180546103c3906107d8565b80601f01602080910402602001604051908101604052809291908181526020018280546103ef906107d8565b801561043c5780601f106104115761010080835404028352916020019161043c565b820191906000526020600020905b81548152906001019060200180831161041f57829003601f168201915b5050505050908060020154905083565b6000604051905090565b600080fd5b600080fd5b6000819050919050565b61047381610460565b811461047e57600080fd5b50565b6000813590506104908161046a565b92915050565b6000602082840312156104ac576104ab610456565b5b60006104ba84828501610481565b91505092915050565b600073ffffffffffffffffffffffffffffffffffffffff82169050919050565b60006104ee826104c3565b9050919050565b6104fe816104e3565b82525050565b600081519050919050565b600082825260208201905092915050565b60005b8381101561053e578082015181840152602081019050610523565b60008484015250505050565b6000601f19601f8301169050919050565b600061056682610504565b610570818561050f565b9350610580818560208601610520565b6105898161054a565b840191505092915050565b61059d81610460565b82525050565b60006060820190506105b860008301866104f5565b81810360208301526105ca818561055b565b90506105d96040830184610594565b949350505050565b600080fd5b600080fd5b7f4e487b7100000000000000000000000000000000000000000000000000000000600052604160045260246000fd5b6106238261054a565b810181811067ffffffffffffffff82111715610642576106416105eb565b5b80604052505050565b600061065561044c565b9050610661828261061a565b919050565b600067ffffffffffffffff821115610681576106806105eb565b5b61068a8261054a565b9050602081019050919050565b82818337600083830152505050565b60006106b96106b484610666565b61064b565b9050828152602081018484840111156106d5576106d46105e6565b5b6106e0848285610697565b509392505050565b600082601f8301126106fd576106fc6105e1565b5b813561070d8482602086016106a6565b91505092915050565b60006020828403121561072c5761072b610456565b5b600082013567ffffffffffffffff81111561074a5761074961045b565b5b610756848285016106e8565b91505092915050565b60006020820190506107746000830184610594565b92915050565b7f4e487b7100000000000000000000000000000000000000000000000000000000600052603260045260246000fd5b7f4e487b7100000000000000000000000000000000000000000000000000000000600052602260045260246000fd5b600060028204905060018216806107f057607f821691505b602082108103610803576108026107a9565b5b50919050565b60008190508160005260206000209050919050565b60006020601f8301049050919050565b600082821b905092915050565b60006008830261086b7fffffffffffffffffffffffffffffffffffffffffffffffffffffffffffffffff8261082e565b610875868361082e565b95508019841693508086168417925050509392505050565b6000819050919050565b60006108b26108ad6108a884610460565b61088d565b610460565b9050919050565b6000819050919050565b6108cc83610897565b6108e06108d8826108b9565b84845461083b565b825550505050565b600090565b6108f56108e8565b6109008184846108c3565b505050565b5b81811015610924576109196000826108ed565b600181019050610906565b5050565b601f8211156109695761093a81610809565b6109438461081e565b81016020851015610952578190505b61096661095e8561081e565b830182610905565b50505b505050565b600082821c905092915050565b600061098c6000198460080261096e565b1980831691505092915050565b60006109a5838361097b565b9150826002028217905092915050565b6109be82610504565b67ffffffffffffffff8111156109d7576109d66105eb565b5b6109e182546107d8565b6109ec828285610928565b600060209050601f831160018114610a1f5760008415610a0d578287015190505b610a178582610999565b865550610a7f565b601f198416610a2d86610809565b60005b82811015610a5557848901518255600182019150602085019450602081019050610a30565b86831015610a725784890151610a6e601f89168261097b565b8355505b6001600288020188555050505b505050505050565b7f4e487b7100000000000000000000000000000000000000000000000000000000600052601160045260246000fd5b6000610ac182610460565b9150610acc83610460565b9250828203905081811115610ae457610ae3610a87565b5b92915050565b60006040820190508181036000830152610b04818561055b565b9050610b136020830184610594565b939250505056fea2646970667358221220623a2ebec4a6df60ab1b88f87d183044c9c8b01702b14f8d71a2f1e0a45939c364736f6c63430008130033","opcodes":"PUSH1 0x80 PUSH1 0x40 MSTORE CALLVALUE DUP1 ISZERO PUSH2 0x10 JUMPI PUSH1 0x0 DUP1 REVERT JUMPDEST POP PUSH2 0xB50 DUP1 PUSH2 0x20 PUSH1 0x0 CODECOPY PUSH1 0x0 RETURN INVALID PUSH1 0x80 PUSH1 0x40 MSTORE CALLVALUE DUP1 ISZERO PUSH2 0x10 JUMPI PUSH1 0x0 DUP1 REVERT JUMPDEST POP PUSH1 0x4 CALLDATASIZE LT PUSH2 0x4C JUMPI PUSH1 0x0 CALLDATALOAD PUSH1 0xE0 SHR DUP1 PUSH4 0x2BFDA313 EQ PUSH2 0x51 JUMPI DUP1 PUSH4 0x66D561D2 EQ PUSH2 0x83 JUMPI DUP1 PUSH4 0x92CF0557 EQ PUSH2 0x9F JUMPI DUP1 PUSH4 0xF4C714B4 EQ PUSH2 0xBD JUMPI JUMPDEST PUSH1 0x0 DUP1 REVERT JUMPDEST PUSH2 0x6B PUSH1 0x4 DUP1 CALLDATASIZE SUB DUP2 ADD SWAP1 PUSH2 0x66 SWAP2 SWAP1 PUSH2 0x496 JUMP JUMPDEST PUSH2 0xEF JUMP JUMPDEST PUSH1 0x40 MLOAD PUSH2 0x7A SWAP4 SWAP3 SWAP2 SWAP1 PUSH2 0x5A3 JUMP JUMPDEST PUSH1 0x40 MLOAD DUP1 SWAP2 SUB SWAP1 RETURN JUMPDEST PUSH2 0x9D PUSH1 0x4 DUP1 CALLDATASIZE SUB DUP2 ADD SWAP1 PUSH2 0x98 SWAP2 SWAP1 PUSH2 0x716 JUMP JUMPDEST PUSH2 0x234 JUMP JUMPDEST STOP JUMPDEST PUSH2 0xA7 PUSH2 0x35E JUMP JUMPDEST PUSH1 0x40 MLOAD PUSH2 0xB4 SWAP2 SWAP1 PUSH2 0x75F JUMP JUMPDEST PUSH1 0x40 MLOAD DUP1 SWAP2 SUB SWAP1 RETURN JUMPDEST PUSH2 0xD7 PUSH1 0x4 DUP1 CALLDATASIZE SUB DUP2 ADD SWAP1 PUSH2 0xD2 SWAP2 SWAP1 PUSH2 0x496 JUMP JUMPDEST PUSH2 0x36A JUMP JUMPDEST PUSH1 0x40 MLOAD PUSH2 0xE6 SWAP4 SWAP3 SWAP2 SWAP1 PUSH2 0x5A3 JUMP JUMPDEST PUSH1 0x40 MLOAD DUP1 SWAP2 SUB SWAP1 RETURN JUMPDEST PUSH1 0x0 PUSH1 0x60 PUSH1 0x0 DUP1 PUSH1 0x0 DUP6 DUP2 SLOAD DUP2 LT PUSH2 0x10A JUMPI PUSH2 0x109 PUSH2 0x77A JUMP JUMPDEST JUMPDEST SWAP1 PUSH1 0x0 MSTORE PUSH1 0x20 PUSH1 0x0 KECCAK256 SWAP1 PUSH1 0x3 MUL ADD PUSH1 0x40 MLOAD DUP1 PUSH1 0x60 ADD PUSH1 0x40 MSTORE SWAP1 DUP2 PUSH1 0x0 DUP3 ADD PUSH1 0x0 SWAP1 SLOAD SWAP1 PUSH2 0x100 EXP SWAP1 DIV PUSH20 0xFFFFFFFFFFFFFFFFFFFFFFFFFFFFFFFFFFFFFFFF AND PUSH20 0xFFFFFFFFFFFFFFFFFFFFFFFFFFFFFFFFFFFFFFFF AND PUSH20 0xFFFFFFFFFFFFFFFFFFFFFFFFFFFFFFFFFFFFFFFF AND DUP2 MSTORE PUSH1 0x20 ADD PUSH1 0x1 DUP3 ADD DUP1 SLOAD PUSH2 0x189 SWAP1 PUSH2 0x7D8 JUMP JUMPDEST DUP1 PUSH1 0x1F ADD PUSH1 0x20 DUP1 SWAP2 DIV MUL PUSH1 0x20 ADD PUSH1 0x40 MLOAD SWAP1 DUP2 ADD PUSH1 0x40 MSTORE DUP1 SWAP3 SWAP2 SWAP1 DUP2 DUP2 MSTORE PUSH1 0x20 ADD DUP3 DUP1 SLOAD PUSH2 0x1B5 SWAP1 PUSH2 0x7D8 JUMP JUMPDEST DUP1 ISZERO PUSH2 0x202 JUMPI DUP1 PUSH1 0x1F LT PUSH2 0x1D7 JUMPI PUSH2 0x100 DUP1 DUP4 SLOAD DIV MUL DUP4 MSTORE SWAP2 PUSH1 0x20 ADD SWAP2 PUSH2 0x202 JUMP JUMPDEST DUP3 ADD SWAP2 SWAP1 PUSH1 0x0 MSTORE PUSH1 0x20 PUSH1 0x0 KECCAK256 SWAP1 JUMPDEST DUP2 SLOAD DUP2 MSTORE SWAP1 PUSH1 0x1 ADD SWAP1 PUSH1 0x20 ADD DUP1 DUP4 GT PUSH2 0x1E5 JUMPI DUP3 SWAP1 SUB PUSH1 0x1F AND DUP3 ADD SWAP2 JUMPDEST POP POP POP POP POP DUP2 MSTORE PUSH1 0x20 ADD PUSH1 0x2 DUP3 ADD SLOAD DUP2 MSTORE POP POP SWAP1 POP DUP1 PUSH1 0x0 ADD MLOAD DUP2 PUSH1 0x20 ADD MLOAD DUP3 PUSH1 0x40 ADD MLOAD SWAP4 POP SWAP4 POP SWAP4 POP POP SWAP2 SWAP4 SWAP1 SWAP3 POP JUMP JUMPDEST PUSH1 0x0 PUSH1 0x40 MLOAD DUP1 PUSH1 0x60 ADD PUSH1 0x40 MSTORE DUP1 CALLER PUSH20 0xFFFFFFFFFFFFFFFFFFFFFFFFFFFFFFFFFFFFFFFF AND DUP2 MSTORE PUSH1 0x20 ADD DUP4 DUP2 MSTORE PUSH1 0x20 ADD TIMESTAMP DUP2 MSTORE POP SWAP1 DUP1 PUSH1 0x1 DUP2 SLOAD ADD DUP1 DUP3 SSTORE DUP1 SWAP2 POP POP PUSH1 0x1 SWAP1 SUB SWAP1 PUSH1 0x0 MSTORE PUSH1 0x20 PUSH1 0x0 KECCAK256 SWAP1 PUSH1 0x3 MUL ADD PUSH1 0x0 SWAP1 SWAP2 SWAP1 SWAP2 SWAP1 SWAP2 POP PUSH1 0x0 DUP3 ADD MLOAD DUP2 PUSH1 0x0 ADD PUSH1 0x0 PUSH2 0x100 EXP DUP2 SLOAD DUP2 PUSH20 0xFFFFFFFFFFFFFFFFFFFFFFFFFFFFFFFFFFFFFFFF MUL NOT AND SWAP1 DUP4 PUSH20 0xFFFFFFFFFFFFFFFFFFFFFFFFFFFFFFFFFFFFFFFF AND MUL OR SWAP1 SSTORE POP PUSH1 0x20 DUP3 ADD MLOAD DUP2 PUSH1 0x1 ADD SWAP1 DUP2 PUSH2 0x2EC SWAP2 SWAP1 PUSH2 0x9B5 JUMP JUMPDEST POP PUSH1 0x40 DUP3 ADD MLOAD DUP2 PUSH1 0x2 ADD SSTORE POP POP CALLER PUSH20 0xFFFFFFFFFFFFFFFFFFFFFFFFFFFFFFFFFFFFFFFF AND PUSH1 0x1 PUSH1 0x0 DUP1 SLOAD SWAP1 POP PUSH2 0x322 SWAP2 SWAP1 PUSH2 0xAB6 JUMP JUMPDEST PUSH32 0x9FDCCE6AFE0035C11728171CEAC46EEA437E7BCDBFF7B89F09917672C11BE7E5 DUP4 TIMESTAMP PUSH1 0x40 MLOAD PUSH2 0x353 SWAP3 SWAP2 SWAP1 PUSH2 0xAEA JUMP JUMPDEST PUSH1 0x40 MLOAD DUP1 SWAP2 SUB SWAP1 LOG3 POP JUMP JUMPDEST PUSH1 0x0 DUP1 DUP1 SLOAD SWAP1 POP SWAP1 POP SWAP1 JUMP JUMPDEST PUSH1 0x0 DUP2 DUP2 SLOAD DUP2 LT PUSH2 0x37A JUMPI PUSH1 0x0 DUP1 REVERT JUMPDEST SWAP1 PUSH1 0x0 MSTORE PUSH1 0x20 PUSH1 0x0 KECCAK256 SWAP1 PUSH1 0x3 MUL ADD PUSH1 0x0 SWAP2 POP SWAP1 POP DUP1 PUSH1 0x0 ADD PUSH1 0x0 SWAP1 SLOAD SWAP1 PUSH2 0x100 EXP SWAP1 DIV PUSH20 0xFFFFFFFFFFFFFFFFFFFFFFFFFFFFFFFFFFFFFFFF AND SWAP1 DUP1 PUSH1 0x1 ADD DUP1 SLOAD PUSH2 0x3C3 SWAP1 PUSH2 0x7D8 JUMP JUMPDEST DUP1 PUSH1 0x1F ADD PUSH1 0x20 DUP1 SWAP2 DIV MUL PUSH1 0x20 ADD PUSH1 0x40 MLOAD SWAP1 DUP2 ADD PUSH1 0x40 MSTORE DUP1 SWAP3 SWAP2 SWAP1 DUP2 DUP2 MSTORE PUSH1 0x20 ADD DUP3 DUP1 SLOAD PUSH2 0x3EF SWAP1 PUSH2 0x7D8 JUMP JUMPDEST DUP1 ISZERO PUSH2 0x43C JUMPI DUP1 PUSH1 0x1F LT PUSH2 0x411 JUMPI PUSH2 0x100 DUP1 DUP4 SLOAD DIV MUL DUP4 MSTORE SWAP2 PUSH1 0x20 ADD SWAP2 PUSH2 0x43C JUMP JUMPDEST DUP3 ADD SWAP2 SWAP1 PUSH1 0x0 MSTORE PUSH1 0x20 PUSH1 0x0 KECCAK256 SWAP1 JUMPDEST DUP2 SLOAD DUP2 MSTORE SWAP1 PUSH1 0x1 ADD SWAP1 PUSH1 0x20 ADD DUP1 DUP4 GT PUSH2 0x41F JUMPI DUP3 SWAP1 SUB PUSH1 0x1F AND DUP3 ADD SWAP2 JUMPDEST POP POP POP POP POP SWAP1 DUP1 PUSH1 0x2 ADD SLOAD SWAP1 POP DUP4 JUMP JUMPDEST PUSH1 0x0 PUSH1 0x40 MLOAD SWAP1 POP SWAP1 JUMP JUMPDEST PUSH1 0x0 DUP1 REVERT JUMPDEST PUSH1 0x0 DUP1 REVERT JUMPDEST PUSH1 0x0 DUP2 SWAP1 POP SWAP2 SWAP1 POP JUMP JUMPDEST PUSH2 0x473 DUP2 PUSH2 0x460 JUMP JUMPDEST DUP2 EQ PUSH2 0x47E JUMPI PUSH1 0x0 DUP1 REVERT JUMPDEST POP JUMP JUMPDEST PUSH1 0x0 DUP2 CALLDATALOAD SWAP1 POP PUSH2 0x490 DUP2 PUSH2 0x46A JUMP JUMPDEST SWAP3 SWAP2 POP POP JUMP JUMPDEST PUSH1 0x0 PUSH1 0x20 DUP3 DUP5 SUB SLT ISZERO PUSH2 0x4AC JUMPI PUSH2 0x4AB PUSH2 0x456 JUMP JUMPDEST JUMPDEST PUSH1 0x0 PUSH2 0x4BA DUP5 DUP3 DUP6 ADD PUSH2 0x481 JUMP JUMPDEST SWAP2 POP POP SWAP3 SWAP2 POP POP JUMP JUMPDEST PUSH1 0x0 PUSH20 0xFFFFFFFFFFFFFFFFFFFFFFFFFFFFFFFFFFFFFFFF DUP3 AND SWAP1 POP SWAP2 SWAP1 POP JUMP JUMPDEST PUSH1 0x0 PUSH2 0x4EE DUP3 PUSH2 0x4C3 JUMP JUMPDEST SWAP1 POP SWAP2 SWAP1 POP JUMP JUMPDEST PUSH2 0x4FE DUP2 PUSH2 0x4E3 JUMP JUMPDEST DUP3 MSTORE POP POP JUMP JUMPDEST PUSH1 0x0 DUP2 MLOAD SWAP1 POP SWAP2 SWAP1 POP JUMP JUMPDEST PUSH1 0x0 DUP3 DUP3 MSTORE PUSH1 0x20 DUP3 ADD SWAP1 POP SWAP3 SWAP2 POP POP JUMP JUMPDEST PUSH1 0x0 JUMPDEST DUP4 DUP2 LT ISZERO PUSH2 0x53E JUMPI DUP1 DUP3 ADD MLOAD DUP2 DUP5 ADD MSTORE PUSH1 0x20 DUP2 ADD SWAP1 POP PUSH2 0x523 JUMP JUMPDEST PUSH1 0x0 DUP5 DUP5 ADD MSTORE POP POP POP POP JUMP JUMPDEST PUSH1 0x0 PUSH1 0x1F NOT PUSH1 0x1F DUP4 ADD AND SWAP1 POP SWAP2 SWAP1 POP JUMP JUMPDEST PUSH1 0x0 PUSH2 0x566 DUP3 PUSH2 0x504 JUMP JUMPDEST PUSH2 0x570 DUP2 DUP6 PUSH2 0x50F JUMP JUMPDEST SWAP4 POP PUSH2 0x580 DUP2 DUP6 PUSH1 0x20 DUP7 ADD PUSH2 0x520 JUMP JUMPDEST PUSH2 0x589 DUP2 PUSH2 0x54A JUMP JUMPDEST DUP5 ADD SWAP2 POP POP SWAP3 SWAP2 POP POP JUMP JUMPDEST PUSH2 0x59D DUP2 PUSH2 0x460 JUMP JUMPDEST DUP3 MSTORE POP POP JUMP JUMPDEST PUSH1 0x0 PUSH1 0x60 DUP3 ADD SWAP1 POP PUSH2 0x5B8 PUSH1 0x0 DUP4 ADD DUP7 PUSH2 0x4F5 JUMP JUMPDEST DUP2 DUP2 SUB PUSH1 0x20 DUP4 ADD MSTORE PUSH2 0x5CA DUP2 DUP6 PUSH2 0x55B JUMP JUMPDEST SWAP1 POP PUSH2 0x5D9 PUSH1 0x40 DUP4 ADD DUP5 PUSH2 0x594 JUMP JUMPDEST SWAP5 SWAP4 POP POP POP POP JUMP JUMPDEST PUSH1 0x0 DUP1 REVERT JUMPDEST PUSH1 0x0 DUP1 REVERT JUMPDEST PUSH32 0x4E487B7100000000000000000000000000000000000000000000000000000000 PUSH1 0x0 MSTORE PUSH1 0x41 PUSH1 0x4 MSTORE PUSH1 0x24 PUSH1 0x0 REVERT JUMPDEST PUSH2 0x623 DUP3 PUSH2 0x54A JUMP JUMPDEST DUP2 ADD DUP2 DUP2 LT PUSH8 0xFFFFFFFFFFFFFFFF DUP3 GT OR ISZERO PUSH2 0x642 JUMPI PUSH2 0x641 PUSH2 0x5EB JUMP JUMPDEST JUMPDEST DUP1 PUSH1 0x40 MSTORE POP POP POP JUMP JUMPDEST PUSH1 0x0 PUSH2 0x655 PUSH2 0x44C JUMP JUMPDEST SWAP1 POP PUSH2 0x661 DUP3 DUP3 PUSH2 0x61A JUMP JUMPDEST SWAP2 SWAP1 POP JUMP JUMPDEST PUSH1 0x0 PUSH8 0xFFFFFFFFFFFFFFFF DUP3 GT ISZERO PUSH2 0x681 JUMPI PUSH2 0x680 PUSH2 0x5EB JUMP JUMPDEST JUMPDEST PUSH2 0x68A DUP3 PUSH2 0x54A JUMP JUMPDEST SWAP1 POP PUSH1 0x20 DUP2 ADD SWAP1 POP SWAP2 SWAP1 POP JUMP JUMPDEST DUP3 DUP2 DUP4 CALLDATACOPY PUSH1 0x0 DUP4 DUP4 ADD MSTORE POP POP POP JUMP JUMPDEST PUSH1 0x0 PUSH2 0x6B9 PUSH2 0x6B4 DUP5 PUSH2 0x666 JUMP JUMPDEST PUSH2 0x64B JUMP JUMPDEST SWAP1 POP DUP3 DUP2 MSTORE PUSH1 0x20 DUP2 ADD DUP5 DUP5 DUP5 ADD GT ISZERO PUSH2 0x6D5 JUMPI PUSH2 0x6D4 PUSH2 0x5E6 JUMP JUMPDEST JUMPDEST PUSH2 0x6E0 DUP5 DUP3 DUP6 PUSH2 0x697 JUMP JUMPDEST POP SWAP4 SWAP3 POP POP POP JUMP JUMPDEST PUSH1 0x0 DUP3 PUSH1 0x1F DUP4 ADD SLT PUSH2 0x6FD JUMPI PUSH2 0x6FC PUSH2 0x5E1 JUMP JUMPDEST JUMPDEST DUP2 CALLDATALOAD PUSH2 0x70D DUP5 DUP3 PUSH1 0x20 DUP7 ADD PUSH2 0x6A6 JUMP JUMPDEST SWAP2 POP POP SWAP3 SWAP2 POP POP JUMP JUMPDEST PUSH1 0x0 PUSH1 0x20 DUP3 DUP5 SUB SLT ISZERO PUSH2 0x72C JUMPI PUSH2 0x72B PUSH2 0x456 JUMP JUMPDEST JUMPDEST PUSH1 0x0 DUP3 ADD CALLDATALOAD PUSH8 0xFFFFFFFFFFFFFFFF DUP2 GT ISZERO PUSH2 0x74A JUMPI PUSH2 0x749 PUSH2 0x45B JUMP JUMPDEST JUMPDEST PUSH2 0x756 DUP5 DUP3 DUP6 ADD PUSH2 0x6E8 JUMP JUMPDEST SWAP2 POP POP SWAP3 SWAP2 POP POP JUMP JUMPDEST PUSH1 0x0 PUSH1 0x20 DUP3 ADD SWAP1 POP PUSH2 0x774 PUSH1 0x0 DUP4 ADD DUP5 PUSH2 0x594 JUMP JUMPDEST SWAP3 SWAP2 POP POP JUMP JUMPDEST PUSH32 0x4E487B7100000000000000000000000000000000000000000000000000000000 PUSH1 0x0 MSTORE PUSH1 0x32 PUSH1 0x4 MSTORE PUSH1 0x24 PUSH1 0x0 REVERT JUMPDEST PUSH32 0x4E487B7100000000000000000000000000000000000000000000000000000000 PUSH1 0x0 MSTORE PUSH1 0x22 PUSH1 0x4 MSTORE PUSH1 0x24 PUSH1 0x0 REVERT JUMPDEST PUSH1 0x0 PUSH1 0x2 DUP3 DIV SWAP1 POP PUSH1 0x1 DUP3 AND DUP1 PUSH2 0x7F0 JUMPI PUSH1 0x7F DUP3 AND SWAP2 POP JUMPDEST PUSH1 0x20 DUP3 LT DUP2 SUB PUSH2 0x803 JUMPI PUSH2 0x802 PUSH2 0x7A9 JUMP JUMPDEST JUMPDEST POP SWAP2 SWAP1 POP JUMP JUMPDEST PUSH1 0x0 DUP2 SWAP1 POP DUP2 PUSH1 0x0 MSTORE PUSH1 0x20 PUSH1 0x0 KECCAK256 SWAP1 POP SWAP2 SWAP1 POP JUMP JUMPDEST PUSH1 0x0 PUSH1 0x20 PUSH1 0x1F DUP4 ADD DIV SWAP1 POP SWAP2 SWAP1 POP JUMP JUMPDEST PUSH1 0x0 DUP3 DUP3 SHL SWAP1 POP SWAP3 SWAP2 POP POP JUMP JUMPDEST PUSH1 0x0 PUSH1 0x8 DUP4 MUL PUSH2 0x86B PUSH32 0xFFFFFFFFFFFFFFFFFFFFFFFFFFFFFFFFFFFFFFFFFFFFFFFFFFFFFFFFFFFFFFFF DUP3 PUSH2 0x82E JUMP JUMPDEST PUSH2 0x875 DUP7 DUP4 PUSH2 0x82E JUMP JUMPDEST SWAP6 POP DUP1 NOT DUP5 AND SWAP4 POP DUP1 DUP7 AND DUP5 OR SWAP3 POP POP POP SWAP4 SWAP3 POP POP POP JUMP JUMPDEST PUSH1 0x0 DUP2 SWAP1 POP SWAP2 SWAP1 POP JUMP JUMPDEST PUSH1 0x0 PUSH2 0x8B2 PUSH2 0x8AD PUSH2 0x8A8 DUP5 PUSH2 0x460 JUMP JUMPDEST PUSH2 0x88D JUMP JUMPDEST PUSH2 0x460 JUMP JUMPDEST SWAP1 POP SWAP2 SWAP1 POP JUMP JUMPDEST PUSH1 0x0 DUP2 SWAP1 POP SWAP2 SWAP1 POP JUMP JUMPDEST PUSH2 0x8CC DUP4 PUSH2 0x897 JUMP JUMPDEST PUSH2 0x8E0 PUSH2 0x8D8 DUP3 PUSH2 0x8B9 JUMP JUMPDEST DUP5 DUP5 SLOAD PUSH2 0x83B JUMP JUMPDEST DUP3 SSTORE POP POP POP POP JUMP JUMPDEST PUSH1 0x0 SWAP1 JUMP JUMPDEST PUSH2 0x8F5 PUSH2 0x8E8 JUMP JUMPDEST PUSH2 0x900 DUP2 DUP5 DUP5 PUSH2 0x8C3 JUMP JUMPDEST POP POP POP JUMP JUMPDEST JUMPDEST DUP2 DUP2 LT ISZERO PUSH2 0x924 JUMPI PUSH2 0x919 PUSH1 0x0 DUP3 PUSH2 0x8ED JUMP JUMPDEST PUSH1 0x1 DUP2 ADD SWAP1 POP PUSH2 0x906 JUMP JUMPDEST POP POP JUMP JUMPDEST PUSH1 0x1F DUP3 GT ISZERO PUSH2 0x969 JUMPI PUSH2 0x93A DUP2 PUSH2 0x809 JUMP JUMPDEST PUSH2 0x943 DUP5 PUSH2 0x81E JUMP JUMPDEST DUP2 ADD PUSH1 0x20 DUP6 LT ISZERO PUSH2 0x952 JUMPI DUP2 SWAP1 POP JUMPDEST PUSH2 0x966 PUSH2 0x95E DUP6 PUSH2 0x81E JUMP JUMPDEST DUP4 ADD DUP3 PUSH2 0x905 JUMP JUMPDEST POP POP JUMPDEST POP POP POP JUMP JUMPDEST PUSH1 0x0 DUP3 DUP3 SHR SWAP1 POP SWAP3 SWAP2 POP POP JUMP JUMPDEST PUSH1 0x0 PUSH2 0x98C PUSH1 0x0 NOT DUP5 PUSH1 0x8 MUL PUSH2 0x96E JUMP JUMPDEST NOT DUP1 DUP4 AND SWAP2 POP POP SWAP3 SWAP2 POP POP JUMP JUMPDEST PUSH1 0x0 PUSH2 0x9A5 DUP4 DUP4 PUSH2 0x97B JUMP JUMPDEST SWAP2 POP DUP3 PUSH1 0x2 MUL DUP3 OR SWAP1 POP SWAP3 SWAP2 POP POP JUMP JUMPDEST PUSH2 0x9BE DUP3 PUSH2 0x504 JUMP JUMPDEST PUSH8 0xFFFFFFFFFFFFFFFF DUP2 GT ISZERO PUSH2 0x9D7 JUMPI PUSH2 0x9D6 PUSH2 0x5EB JUMP JUMPDEST JUMPDEST PUSH2 0x9E1 DUP3 SLOAD PUSH2 0x7D8 JUMP JUMPDEST PUSH2 0x9EC DUP3 DUP3 DUP6 PUSH2 0x928 JUMP JUMPDEST PUSH1 0x0 PUSH1 0x20 SWAP1 POP PUSH1 0x1F DUP4 GT PUSH1 0x1 DUP2 EQ PUSH2 0xA1F JUMPI PUSH1 0x0 DUP5 ISZERO PUSH2 0xA0D JUMPI DUP3 DUP8 ADD MLOAD SWAP1 POP JUMPDEST PUSH2 0xA17 DUP6 DUP3 PUSH2 0x999 JUMP JUMPDEST DUP7 SSTORE POP PUSH2 0xA7F JUMP JUMPDEST PUSH1 0x1F NOT DUP5 AND PUSH2 0xA2D DUP7 PUSH2 0x809 JUMP JUMPDEST PUSH1 0x0 JUMPDEST DUP3 DUP2 LT ISZERO PUSH2 0xA55 JUMPI DUP5 DUP10 ADD MLOAD DUP3 SSTORE PUSH1 0x1 DUP3 ADD SWAP2 POP PUSH1 0x20 DUP6 ADD SWAP5 POP PUSH1 0x20 DUP2 ADD SWAP1 POP PUSH2 0xA30 JUMP JUMPDEST DUP7 DUP4 LT ISZERO PUSH2 0xA72 JUMPI DUP5 DUP10 ADD MLOAD PUSH2 0xA6E PUSH1 0x1F DUP10 AND DUP3 PUSH2 0x97B JUMP JUMPDEST DUP4 SSTORE POP JUMPDEST PUSH1 0x1 PUSH1 0x2 DUP9 MUL ADD DUP9 SSTORE POP POP POP JUMPDEST POP POP POP POP POP POP JUMP JUMPDEST PUSH32 0x4E487B7100000000000000000000000000000000000000000000000000000000 PUSH1 0x0 MSTORE PUSH1 0x11 PUSH1 0x4 MSTORE PUSH1 0x24 PUSH1 0x0 REVERT JUMPDEST PUSH1 0x0 PUSH2 0xAC1 DUP3 PUSH2 0x460 JUMP JUMPDEST SWAP2 POP PUSH2 0xACC DUP4 PUSH2 0x460 JUMP JUMPDEST SWAP3 POP DUP3 DUP3 SUB SWAP1 POP DUP2 DUP2 GT ISZERO PUSH2 0xAE4 JUMPI PUSH2 0xAE3 PUSH2 0xA87 JUMP JUMPDEST JUMPDEST SWAP3 SWAP2 POP POP JUMP JUMPDEST PUSH1 0x0 PUSH1 0x40 DUP3 ADD SWAP1 POP DUP2 DUP2 SUB PUSH1 0x0 DUP4 ADD MSTORE PUSH2 0xB04 DUP2 DUP6 PUSH2 0x55B JUMP JUMPDEST SWAP1 POP PUSH2 0xB13 PUSH1 0x20 DUP4 ADD DUP5 PUSH2 0x594 JUMP JUMPDEST SWAP4 SWAP3 POP POP POP JUMP INVALID LOG2 PUSH5 0x6970667358 0x22 SLT KECCAK256 PUSH3 0x3A2EBE 0xC4 0xA6 0xDF PUSH1 0xAB SHL DUP9 0xF8 PUSH30 0x183044C9C8B01702B14F8D71A2F1E0A45939C364736F6C63430008130033 "},"methodIdentifiers":{"files(uint256)":"f4c714b4","getFile(uint256)":"2bfda313","registerFile(string)":"66d561d2","totalFiles()":"92cf0557"}}}}}